:1000000007C1000033C1000031C100002FC1000052
:100010002DC100002BC1000029C1000027C1000034
:1000200025C1000023C1000021C100001FC1000044
:100030001DC100001BC1000019C1000017C1000054
:1000400015C100005AC2000011C100000FC100001C
:100050000DC100000BC1000009C100004FC5000028
:1000600005C100006DC40000A1C40000FFC0000075
:10007000FDC00000FBC00000F9C00000F7C0000098
:1000800069C20000F3C00000F1C00000EFC0000032
:10009000EDC00000EBC00000E9C00000E7C00000B8
:1000A000E5C00000E3C0000082C20000DFC0000025
:1000B000DDC00000DBC00000D9C00000A5C2000008
:1000C000D5C00000D3C00000D1C00000CFC00000E8
:1000D000CDC00000CBC00000C9C00000C7C00000F8
:1000E000C5C000004D0650063F0643064906870678
:1000F000540658065E06620666066C0670067406AE
:1001000087067A067E06820600000A0B02090C0D9D
:100110000E080703040100000000000000000000BA
:1001200000000000000000000000000000000000CF
:10013000000000001211100000000000000000008C
:1001400000000000000000000000000000000102AC
:1001500010202008081020401020408002010201D9
:100160000804020101020408102040808040201091
:1001700008040201800402018040201008040201EA
:100180000804020101020408102040800102040852
:10019000102040800505050507050808080802022B
:1001A00002020A0A08080404040401010101010111
:1001B00001010303030303030303040707070C0CF4
:1001C0000C0C0C0C0C0C02020202060606060606BB
:1001D00006060B0B0B0B0B0B0B0B00002200250074
:1001E00028002B002E003100340002010000050120
:1001F00008010B0100002100240027002A002D0027
:100200003000330001010000040107010A01080564
:1002100011241FBECFEFD1E2DEBFCDBF00E00CBF87
:1002200012E0A0E0B2E0E8E4FEE000E00BBF02C0B4
:1002300007900D92A033B107D9F723E0A0E3B2E015
:1002400001C01D92AD36B207E1F712E0C0E1D2E085
:1002500000E005C022970109FE010BBFEFD5CE30AB
:10026000D10780E00807B1F73FD4ECC5C9CE61E003
:1002700080911E024DD561E080911C0249D561E05C
:1002800080911A0245D561E08091180241D526E09F
:1002900040E855E260E070E087EC92E0F1C2CF9375
:1002A000DF93EC01CC0FDD1FCC5FDD4F6881617007
:1002B00080911E0266D56881798175956795617018
:1002C00080911C025ED568817981759567957595D9
:1002D0006795617080911A0254D56881798133E005
:1002E000759567953A95E1F7617080911802DF91F5
:1002F000CF9147C5CF93DF93C0E0D0E0CE01CFDFF1
:10030000809116029091170243D42196C830D105EE
:10031000A9F7DF91CF910895CF93DF93C7E0D0E0A5
:10032000CE01BDDF809116029091170231D4219742
:10033000B8F7DF91CF91089580913002909131020A
:1003400020911402309115028217930714F4E4DF10
:100350000BC0220F331F8217930729F4109231022A
:100360001092300201C0C6DF8091300290913102BC
:10037000019690933102809330020895CF92DF92DC
:10038000EF92FF920F931F93CF93DF936C018B013A
:100390007A01EC01CD5CDD4F888187FF04C0FB0151
:1003A0001182108223C02CE02C9DC0012D9D900D48
:1003B00011242881AC01420F511D27FD5A9520912F
:1003C000320230E0421753078CF42881AC01420F0F
:1003D000511D27FD5A959A01FA01EE0FFF1FE20FFA
:1003E000F31FE95CFD4F208126FD19C088818F5FD6
:1003F00088838CE08C9D90018D9D300D1124888127
:10040000A901480F511D87FD5A958091320290E055
:1004100048175907ACF488818C3034F111C0288119
:10042000820F911D27FD9A95FC01EE0FFF1FE80F2B
:10043000F91FE95CFD4F808160E08F73A2D4D6CFB5
:10044000F80180819181049680349C4918F480E4FD
:100450009CE904C0F801808191810496F7019183A1
:1004600080838FEF888340C0F8018081918148812B
:10047000B901640F711D47FD7A95AB01FB01EE0FC9
:10048000FF1FE40FF51FE95CFD4F41815281840F8E
:10049000951FF701918380838881A901480F511D21
:1004A00087FD5A95FA01EE0FFF1FE40FF51FE95C77
:1004B000FD4F808186FF18C08881280F311D87FD80
:1004C0003A95F901EE0FFF1FE20FF31FE95CFD4FB4
:1004D000808161E08F73DF91CF911F910F91FF9029
:1004E000EF90DF90CF904DC4DF91CF911F910F918E
:1004F000FF90EF90DF90CF9008951F920F920FB66C
:100500000F9211240BB60F922F933F934F935F934B
:100510006F937F938F939F93AF93BF93EF93FF93CB
:1005200048E850E064E870E081E090E027DFFF9168
:10053000EF91BF91AF919F918F917F916F915F915B
:100540004F913F912F910F900BBE0F900FBE0F90C8
:100550001F9018951F920F920FB60F9211240BB691
:100560000F922F933F934F935F936F937F938F934C
:100570009F93AF93BF93EF93FF9348E950E064E9F3
:1005800070E082E090E0FADEFF91EF91BF91AF91D1
:100590009F918F917F916F915F914F913F912F919B
:1005A0000F900BBE0F900FBE0F901F9018951F92CB
:1005B0000F920FB60F9211240BB60F922F933F9309
:1005C0004F935F936F937F938F939F93AF93BF935B
:1005D000EF93FF9348EA50E064EA70E083E090E034
:1005E000CDDEFF91EF91BF91AF919F918F917F9160
:1005F0006F915F914F913F912F910F900BBE0F9094
:100600000FBE0F901F9018951F920F920FB60F926A
:1006100011240BB60F922F933F934F935F936F93D9
:100620007F938F939F93AF93BF93EF93FF9348E292
:1006300051E064E271E080E090E0A0DEFF91EF9194
:10064000BF91AF919F918F917F916F915F914F91EA
:100650003F912F910F900BBE0F900FBE0F901F90E8
:100660001895FC01818D228D90E0805C9F4F821B4C
:1006700091098F7399270895FC01918D828D9817A8
:1006800031F0828DE80FF11D858D90E008958FEF98
:100690009FEF0895FC01918D828D981761F0828DF6
:1006A000DF01A80FB11D5D968C91928D9F5F9F73A6
:1006B000928F90E008958FEF9FEF08958FEF94E071
:1006C000892B39F080E090E0892B19F098D18111C5
:1006D00025C080E090E0892B41F080E090E0892BFC
:1006E00021F00E94000081111CC080E090E0892B65
:1006F00041F080E090E0892B21F00E940000811100
:1007000013C080E090E0892BA1F080E090E0892B7D
:1007100081F00E94000081110AC008950E9400002B
:10072000D8CF0E940000E1CF0E940000EACF0C94D5
:1007300000000895FC01848DDF01A80FB11DA35AAC
:10074000BF4F2C91848D90E001968F739927848FF1
:10075000A689B7892C93A089B1898C9180648C93E8
:10076000938D848D981306C00288F389E02D8081D3
:100770008F7D80830895CF93DF93EC01888D88234C
:10078000C1F0EA89FB89808185FD05C0A889B98906
:100790008C9186FD0EC00FB607FCF5CF808185FFDA
:1007A000F2CFA889B9898C9185FFEDCFCE01C2DF48
:1007B000E8CFDF91CF910895CF92DF92FF920F9310
:1007C0001F93CF93DF931F92CDB7DEB76C0181E00B
:1007D000D60158968C9358975B969C915B975C9644
:1007E0008C915C97981307C05096ED91FC915197AE
:1007F000808185FD2DC0F601038D10E00F5F1F4F36
:100800000F731127F02EF601848DF81210C00FB669
:1008100007FCF9CFD6015096ED91FC91519780815C
:1008200085FFF1CFC601698385DF6981ECCF838DB8
:10083000E80FF11DE35AFF4F6083D6015B960C93DE
:100840005B975296ED91FC915397808180620CC02A
:10085000D6015696ED91FC91579760835096ED9195
:10086000FC91519780818064808381E090E00F90BB
:10087000DF91CF911F910F91FF90DF90CF9008955E
:10088000BF92CF92DF92EF92FF92CF93DF93EC0172
:100890006A017B01B22EE889F98982E080834115E3
:1008A00081EE58076105710599F060E079E08DE30C
:1008B00090E0A70196019AD22150310941095109CE
:1008C0005695479537952795211580E1380790F083
:1008D000E889F989108260E874E88EE190E0A70168
:1008E000960184D221503109410951095695479505
:1008F00037952795EC85FD853083EE85FF85208330
:10090000188EEC89FD89B082EA89FB89808180613B
:100910008083EA89FB89808188608083EA89FB89FA
:10092000808180688083EA89FB8980818F7D8083D4
:10093000DF91CF91FF90EF90DF90CF90BF9008951F
:100940001F920F920FB60F9211240BB60F922F9396
:100950008F939F93EF93FF93E091D702F091D8028A
:100960008081E091DD02F091DE0282FD12C0908173
:100970008091E0028F5F8F732091E102821751F026
:10098000E091E002F0E0E953FD4F958F8093E002A3
:1009900001C08081FF91EF919F918F912F910F90D6
:1009A0000BBE0F900FBE0F901F9018951F920F92C5
:1009B0000FB60F9211240BB60F922F933F934F93C4
:1009C0005F936F937F938F939F93AF93BF93EF93B7
:1009D000FF9387EC92E0AEDEFF91EF91BF91AF9174
:1009E0009F918F917F916F915F914F913F912F9147
:1009F0000F900BBE0F900FBE0F901F90189587ECB5
:100A000092E02FDE21E0892B09F420E0822F089567
:100A10001092CA021092C90288EE93E0A0E0B0E002
:100A20008093CB029093CC02A093CD02B093CE02E0
:100A300084E292E09093C8028093C70285EC90E034
:100A40009093D4028093D30284EC90E09093D602EA
:100A50008093D50280EC90E09093D8028093D702E7
:100A600081EC90E09093DA028093D90282EC90E0DE
:100A70009093DC028093DB0286EC90E09093DE02A0
:100A80008093DD021092E0021092E1021092E202E5
:100A90001092E3020895CF92DF92EF92FF920F93AC
:100AA0001F93CF93DF936C017A01EB01E60EF71EE3
:100AB00000E010E0CE15DF0561F06991D601ED91FF
:100AC000FC910190F081E02DC6011995080F191FC6
:100AD000F1CFC801DF91CF911F910F91FF90EF905F
:100AE000DF90CF90089508955ED0FDDFC0DBCEE5A6
:100AF000D3E022DC2097E9F3E1DDFBCF1F920F92D8
:100B00000FB60F9211242F933F938F939F93AF9320
:100B1000BF938091650390916603A0916703B091A4
:100B200068033091640323E0230F2D3720F40196EE
:100B3000A11DB11D05C026E8230F0296A11DB11D00
:100B4000209364038093650390936603A0936703E7
:100B5000B09368038091690390916A03A0916B033D
:100B6000B0916C030196A11DB11D80936903909310
:100B70006A03A0936B03B0936C03BF91AF919F91F5
:100B80008F913F912F910F900FBE0F901F9018954E
:100B90008230910538F0880F991F880F991F0597AB
:100BA0000197F1F70895789484B5826084BD84B587
:100BB000816084BD85B5826085BD85B5816085BD58
:100BC000EEE6F0E0808181608083E1E8F0E0108271
:100BD000808182608083808181608083E0E8F0E0B2
:100BE000808181608083E1EBF0E08081846080839C
:100BF000E0EBF0E0808181608083E1E9F0E08081DA
:100C000082608083808181608083E0E9F0E0808180
:100C100081608083E1EAF0E080818260808380816E
:100C200081608083E0EAF0E0808181608083E1E29E
:100C3000F1E0808182608083808181608083E0E256
:100C4000F1E0808181608083EAE7F0E08081846068
:100C500080838081826080838081816080838081C5
:100C6000806880831092C100089590E0FC01319764
:100C7000E231F10508F04BC0EE58FF4FD9C080912A
:100C800080008F7703C0809180008F7D80938000EB
:100C9000089580918000877FF9CF84B58F7702C057
:100CA00084B58F7D84BD08958091B0008F7703C097
:100CB0008091B0008F7D8093B00008958091900066
:100CC0008F7707C0809190008F7D03C08091900046
:100CD000877F8093900008958091A0008F7707C050
:100CE0008091A0008F7D03C08091A000877F8093BA
:100CF000A0000895809120018F7707C08091200186
:100D00008F7D03C080912001877F8093200108950B
:100D1000CF93DF9390E0FC01E25BFE4F2491FC0156
:100D2000EC56FE4F8491882349F190E0880F991F7B
:100D3000FC01EC50FE4FA591B49186529E4FFC01F0
:100D4000C591D4919FB7611108C0F8948C912095FA
:100D500082238C93888182230AC0623051F4F894F4
:100D60008C91322F309583238C938881822B8883BA
:100D700004C0F8948C91822B8C939FBFDF91CF910C
:100D800008950F931F93CF93DF931F92CDB7DEB7D4
:100D9000282F30E0F901E85FFE4F8491F901E25B12
:100DA000FE4F1491F901EC56FE4F04910023C1F05F
:100DB000882319F0698359DF6981E02FF0E0EE0F95
:100DC000FF1FE652FE4FA591B4919FB7F8948C9106
:100DD000611103C01095812301C0812B8C939FBFAB
:100DE0000F90DF91CF911F910F910895A1E21A2EDC
:100DF000AA1BBB1BFD010DC0AA1FBB1FEE1FFF1FBF
:100E0000A217B307E407F50720F0A21BB30BE40B0E
:100E1000F50B661F771F881F991F1A9469F7609555
:100E20007095809590959B01AC01BD01CF0108950F
:100E3000EE0FFF1F0590F491E02D19940790F691A5
:080E4000E02D1994F894FFCF96
:100E48000100000008000C00040006000200030076
:100E5800010009000002B0040B000A0009000800A4
:100E680000000000DC034B0531034A033C03BB03CD
:00000001FF
